{
  "contractName": "Journal",
  "abi": [
    {
      "constant": true,
      "inputs": [],
      "name": "creator",
      "outputs": [
        {
          "name": "",
          "type": "address"
        }
      ],
      "payable": false,
      "stateMutability": "view",
      "type": "function"
    },
    {
      "inputs": [],
      "payable": false,
      "stateMutability": "nonpayable",
      "type": "constructor"
    },
    {
      "anonymous": false,
      "inputs": [
        {
          "indexed": false,
          "name": "user",
          "type": "address"
        },
        {
          "indexed": false,
          "name": "email",
          "type": "bytes32"
        }
      ],
      "name": "RegisterEvent",
      "type": "event"
    },
    {
      "anonymous": false,
      "inputs": [
        {
          "indexed": true,
          "name": "user",
          "type": "address"
        },
        {
          "indexed": false,
          "name": "signedHash",
          "type": "bytes32"
        }
      ],
      "name": "PostArticleEvent",
      "type": "event"
    },
    {
      "anonymous": false,
      "inputs": [
        {
          "indexed": true,
          "name": "user",
          "type": "address"
        },
        {
          "indexed": false,
          "name": "signedHash",
          "type": "bytes32"
        }
      ],
      "name": "PostReviewEvent",
      "type": "event"
    },
    {
      "anonymous": false,
      "inputs": [
        {
          "indexed": false,
          "name": "user",
          "type": "address"
        },
        {
          "indexed": false,
          "name": "signedHash",
          "type": "bytes32"
        },
        {
          "indexed": true,
          "name": "contentHash",
          "type": "bytes32"
        }
      ],
      "name": "VoteYesEvent",
      "type": "event"
    },
    {
      "anonymous": false,
      "inputs": [
        {
          "indexed": false,
          "name": "user",
          "type": "address"
        },
        {
          "indexed": false,
          "name": "signedHash",
          "type": "bytes32"
        },
        {
          "indexed": true,
          "name": "contentHash",
          "type": "bytes32"
        }
      ],
      "name": "VoteNoEvent",
      "type": "event"
    },
    {
      "constant": false,
      "inputs": [
        {
          "name": "reciever",
          "type": "address"
        },
        {
          "name": "email",
          "type": "bytes32"
        }
      ],
      "name": "register",
      "outputs": [
        {
          "name": "",
          "type": "bool"
        }
      ],
      "payable": false,
      "stateMutability": "nonpayable",
      "type": "function"
    },
    {
      "constant": false,
      "inputs": [
        {
          "name": "user",
          "type": "address"
        },
        {
          "name": "signedHash",
          "type": "bytes32"
        }
      ],
      "name": "postArticle",
      "outputs": [],
      "payable": false,
      "stateMutability": "nonpayable",
      "type": "function"
    },
    {
      "constant": false,
      "inputs": [
        {
          "name": "user",
          "type": "address"
        },
        {
          "name": "signedHash",
          "type": "bytes32"
        }
      ],
      "name": "postReviewEvent",
      "outputs": [],
      "payable": false,
      "stateMutability": "nonpayable",
      "type": "function"
    },
    {
      "constant": false,
      "inputs": [
        {
          "name": "user",
          "type": "address"
        },
        {
          "name": "signedHash",
          "type": "bytes32"
        },
        {
          "name": "contentHash",
          "type": "bytes32"
        }
      ],
      "name": "voteReviewYes",
      "outputs": [],
      "payable": false,
      "stateMutability": "nonpayable",
      "type": "function"
    },
    {
      "constant": false,
      "inputs": [
        {
          "name": "user",
          "type": "address"
        },
        {
          "name": "signedHash",
          "type": "bytes32"
        },
        {
          "name": "contentHash",
          "type": "bytes32"
        }
      ],
      "name": "voteReviewNo",
      "outputs": [],
      "payable": false,
      "stateMutability": "nonpayable",
      "type": "function"
    }
  ],
  "bytecode": "0x608060405234801561001057600080fd5b50336000806101000a81548173ffffffffffffffffffffffffffffffffffffffff021916908373ffffffffffffffffffffffffffffffffffffffff1602179055506105df806100606000396000f300608060405260043610610078576000357c0100000000000000000000000000000000000000000000000000000000900463ffffffff16806302d05d3f1461007d57806306faf456146100d45780631e7a505f146101335780634c8861df1461019c57806383e2a574146101ed578063d5544b2e1461023e575b600080fd5b34801561008957600080fd5b5061009261029d565b604051808273ffffffffffffffffffffffffffffffffffffffff1673ffffffffffffffffffffffffffffffffffffffff16815260200191505060405180910390f35b3480156100e057600080fd5b50610131600480360381019080803573ffffffffffffffffffffffffffffffffffffffff169060200190929190803560001916906020019092919080356000191690602001909291905050506102c2565b005b34801561013f57600080fd5b50610182600480360381019080803573ffffffffffffffffffffffffffffffffffffffff169060200190929190803560001916906020019092919050505061033f565b604051808215151515815260200191505060405180910390f35b3480156101a857600080fd5b506101eb600480360381019080803573ffffffffffffffffffffffffffffffffffffffff1690602001909291908035600019169060200190929190505050610482565b005b3480156101f957600080fd5b5061023c600480360381019080803573ffffffffffffffffffffffffffffffffffffffff16906020019092919080356000191690602001909291905050506104dc565b005b34801561024a57600080fd5b5061029b600480360381019080803573ffffffffffffffffffffffffffffffffffffffff16906020019092919080356000191690602001909291908035600019169060200190929190505050610536565b005b6000809054906101000a900473ffffffffffffffffffffffffffffffffffffffff1681565b80600019167f9489647adb5c34a58fa8f859696fe6f4b91c147307967e09235a052b05aba9af8484604051808373ffffffffffffffffffffffffffffffffffffffff1673ffffffffffffffffffffffffffffffffffffffff16815260200182600019166000191681526020019250505060405180910390a2505050565b60008060009054906101000a900473ffffffffffffffffffffffffffffffffffffffff1673ffffffffffffffffffffffffffffffffffffffff163373ffffffffffffffffffffffffffffffffffffffff16141515610405576040517f08c379a00000000000000000000000000000000000000000000000000000000081526004018080602001828103825260158152602001807f53656e646572206e6f7420617574686f72697a6564000000000000000000000081525060200191505060405180910390fd5b7ffacc9d13d013779efda816ae378eaa350037297fa4bc859e899dcf236564d62b8383604051808373ffffffffffffffffffffffffffffffffffffffff1673ffffffffffffffffffffffffffffffffffffffff16815260200182600019166000191681526020019250505060405180910390a16001905092915050565b8173ffffffffffffffffffffffffffffffffffffffff167f85933068c724a1af85e8f6b5ad967d968d18833a7a0709425653d9fd1c65edc78260405180826000191660001916815260200191505060405180910390a25050565b8173ffffffffffffffffffffffffffffffffffffffff167fecbc4c789173b7785fc96ea36fea185e7f38a9ee4ab49c62b78835c9374c35428260405180826000191660001916815260200191505060405180910390a25050565b80600019167fc23312b17b0c1a11eded0966ba0ed39e4616a28eea96049e9d7cdf7b9736dbae8484604051808373ffffffffffffffffffffffffffffffffffffffff1673ffffffffffffffffffffffffffffffffffffffff16815260200182600019166000191681526020019250505060405180910390a25050505600a165627a7a72305820bef44e24263d5af066ca22fe37e328871526996a2b9d033935d611d4919560530029",
  "source": "pragma solidity ^0.4.24;\r\n\r\n\r\ncontract Journal {\r\n    address public creator;\r\n    constructor() public {creator = msg.sender;}\r\n    \r\n    event RegisterEvent(address user, bytes32 email);\r\n    event PostArticleEvent(address indexed user, bytes32 signedHash);\r\n    event PostReviewEvent(address indexed user, bytes32 signedHash);\r\n    event VoteYesEvent(address user, bytes32 signedHash, bytes32 indexed contentHash);\r\n    event VoteNoEvent(address user, bytes32 signedHash, bytes32 indexed contentHash);\r\n\r\n    function register(address reciever, bytes32 email) public returns(bool) {\r\n        require(msg.sender == creator, \"Sender not authorized\");\r\n        emit RegisterEvent(reciever, email);\r\n        return true;\r\n    }\r\n    function postArticle(address user, bytes32 signedHash) public{\r\n        emit PostArticleEvent(user, signedHash);\r\n    }\r\n    function postReviewEvent(address user, bytes32 signedHash) public{\r\n        emit PostReviewEvent(user, signedHash);\r\n    }\r\n    function voteReviewYes(address user, bytes32 signedHash, bytes32 contentHash) public {\r\n        emit VoteYesEvent(user, signedHash, contentHash);\r\n    }\r\n    function voteReviewNo(address user, bytes32 signedHash, bytes32 contentHash) public {\r\n        emit VoteNoEvent(user, signedHash, contentHash);\r\n    }\r\n}",
  "sourcePath": "C:\\Users\\Asfandyar\\blockchain\\journalv1\\smartcontract\\contracts\\Journal.sol",
  "compiler": {
    "name": "solc",
    "version": "0.4.24+commit.e67f0147.Emscripten.clang"
  },
  "schemaVersion": "2.0.1",
  "updatedAt": "2018-08-16T13:57:06.263Z"
}